:1000000058C072C071C070C06FC06EC06DC06CC08F
:100010006BC06AC069C0CEC067C066C0F5C064C0AE
:1000200063C062C061C041542B43574A41505F4393
:1000300055523D22427562615F472D322E3447484A
:100040007A222C22616C616D616B6F746132303188
:1000500038220D0A0041542B43494653520D0A00E1
:100060000D0A0041542B434950434C4F53453D34F6
:100070000D0A0041542B43495053544152543D34CE
:100080002C22554450222C223139322E3136382E32
:10009000312E3531222C313131322C383038312C5F
:1000A000300D0A0041542B4349504D55583D310DF8
:1000B0000A0011241FBECFE5D4E0DEBFCDBF12E0A1
:1000C000A0E6B0E0ECEEF7E002C005900D92A43996
:1000D000B107D9F723E0A4E9B2E001C01D92A6312F
:1000E000B207E1F737D180C38BCF87B1806E87B974
:1000F00087B1807F87B986B18F6886B90895369AAF
:100100000895FDDF81E090E09093610080936000AE
:100110008091640090916500892B09F43FC080ECC8
:1001200091E093D2892B59F08AE690E05ED28EEF6F
:100130009FEF79D11092630010926200089582EBD4
:1001400091E083D2892B69F083E990E04ED282E07E
:1001500090E069D182E090E0909363008093620028
:10016000089585EA91E071D2892B79F084EB90E0D3
:100170003CD264EF71E080E090E08CD181E090E0CF
:100180009093630080936200089588E991E05DD2C6
:10019000892B19F08DEC90E028D2C4D1089587E026
:1001A00089B9599A8AB188698AB980B5866880BD4B
:1001B000899A08951F920F920FB60F9211248F9370
:1001C0009F93EF93FF93E0919C02F0919D028CB17D
:1001D000E256FD4F808380919C0290919D02833670
:1001E000910548F480919C0290919D020196909314
:1001F0009D0280939C02FF91EF919F918F910F90B0
:100200000FBE0F901F9018951F920F920FB60F926E
:1002100011242F933F934F935F936F937F938F930B
:100220009F93AF93BF93CF93DF93EF93FF9384B1EB
:1002300095B190939B0280939A0280919A0290913B
:100240009B02892B39F1A0916800B091690020913F
:100250009402309195024091960250919702C0917C
:100260009A02D0919B02E0916800F0916900119789
:100270001BD26C0F7D1F811D911D9F01FF0F440B31
:10028000550BF6D120939402309395024093960239
:10029000509397028091660090916700409194027C
:1002A000509195026091960270919702092E000C70
:1002B000AA0BBB0B84179507A607B7076CF48AE255
:1002C00090E09BBD8ABD109294021092950210920C
:1002D00096021092970201C012DFFF91EF91DF9119
:1002E000CF91BF91AF919F918F917F916F915F91CE
:1002F0004F913F912F910F900FBE0F901F90189527
:100300008091980290919902892B19F1939A2FEF7D
:100310008FE392E0215080409040E1F700C0000060
:1003200093982FEF8FE392E0215080409040E1F7C7
:1003300000C00000809198029091990201979093DB
:100340009902809398028091980290919902892B4A
:10035000E9F6089556D080E090E065D08B9A1FDFD3
:100360002FEF8FEF9CE2215080409040E1F700C0DA
:10037000000078942BD183E690E0F2D020D12FEFCB
:100380008FE796E1215080409040E1F700C00000E7
:1003900085E590E0E5D08DEC91E027D1C3D085EFE5
:1003A00091E023D1BFD0A1DEAADE85E090E090935A
:1003B000990280939802A4DF10929D0210929C02F1
:1003C00020919C0230919D0280919C0290919D020F
:1003D00028173907C9F3A6D0F89493DE2FEF8FE7DB
:1003E00096E1215080409040E1F700C0000010925B
:1003F00094021092950210929602109297027894AD
:10040000DBCFB99A8FB582688FBD8FB58E7B8FBDDC
:100410008EB58C618EBD8EB58C7F8EBD8FE392E0E4
:1004200097BD86BD08950097C1F03CF48E3F2FEF35
:10043000920749F0019661F01FC08130910591F05B
:100440000297A9F019C087E190E09BBD8ABD08958D
:1004500086E290E09BBD8ABD08958AE290E09BBD54
:100460008ABD08958FE290E09BBD8ABD089581E426
:1004700090E09BBD8ABD08958AE290E09BBD8ABD55
:100480000895009731F0E3E3F7E03197F1F7019732
:10049000D1F708959C01892B39F1CB01121613066F
:1004A00044F02E3F4FEF340759F02F3F3F4F91F06C
:1004B00034C021303105E9F02230310521F12DC061
:1004C00027E130E03BBD2ABDDCDF8AE290E09BBD46
:1004D0008ABD089526E230E03BBD2ABDD2DF8AE224
:1004E00090E09BBD8ABD08958AE290E09BBD8ABDE5
:1004F00008952FE230E03BBD2ABDC3DF8AE290E0E1
:100500009BBD8ABD089521E430E03BBD2ABDB9DF23
:100510008AE290E09BBD8ABD08958AE290E09BBD8F
:100520008ABD0895F89484E690E040919C02509131
:100530009D027894E3E3F7E03197F1F7F894209186
:100540009C0230919D024217530711F0019769F701
:1005500078948FEF97E40197F1F700C000000895B9
:10056000CF93DF93EC01DED0FE019E01280F391FEF
:1005700004C05D9BFECF95919CB9E217F307C9F7C4
:10058000D1DFDF91CF910895CF93DF93DC01EC01B0
:1005900020E030E006C05D9BFECF89918CB92F5FD3
:1005A0003F4FFD0101900020E9F73197EA1BFB0B5B
:1005B0002E173F0780F3B6DFDF91CF91089584EACD
:1005C00090E0CEDF83E790E0CBDF089586E290E015
:1005D000C7DFA8DF2FEF8FE79AEC215080409040D3
:1005E000E1F700C000009EDF08950F931F93CF93A3
:1005F000DF93CDB7DEB760970FB6F894DEBF0FBEBE
:10060000CDBF8C0186E892E0BFDFF80101900020A9
:10061000E9F7CF0101974AE0BE016F5F7F4F801B72
:10062000910BAFD0CE010196AFDF80E690E098DF6E
:10063000C801AADF60960FB6F894DEBF0FBECDBF2B
:10064000DF91CF911F910F910895FC01019000203F
:10065000E9F731979F01281B390B60919C0270913B
:100660009D026F5F7F4FAC018EE992E064D00895E8
:10067000052E97FB16F400940FD057FD05D01AD025
:1006800007FC02D046F408C050954095309521955E
:100690003F4F4F4F5F4F08959095809570956195AE
:1006A0007F4F8F4F9F4F0895B7FF26C025D0821BE5
:1006B000930B0895A1E21A2EAA1BBB1BFD010DC0CE
:1006C000AA1FBB1FEE1FFF1FA217B307E407F50702
:1006D00020F0A21BB30BE40BF50B661F771F881FDE
:1006E000991F1A9469F760957095809590959B0174
:1006F000AC01BD01CF01089509D0A59F900DB49F15
:10070000900DA49F800D911D11240895A29FB0010A
:10071000B39FC001A39F01D0B29F700D811D112412
:10072000911D0895FC0105900020E9F780959095B2
:100730008E0F9F1F08952115310511F11F930F93FF
:10074000240F351F680F791FFA011191AF01DC01E9
:10075000A617B70780F40D910117D1F7CD01FA0163
:10076000E217F30750F4A617B70728F40D9101908C
:100770000015B1F3ECCF81E090E001970F911F914C
:100780000895BB274A3031F4992322F4BDE29095B5
:1007900081959F4F01C0BB27FB015527AA27880FD2
:1007A000991FAA1FA41710F0A41B83955051B9F7E5
:1007B000A05DAA3308F0A95DA193009779F7B11164
:1007C000B1931192CB0100C0DC01FC01672F719144
:1007D0007723E1F7329704C07C916D937083629127
:0C07E000AE17BF07C8F30895F894FFCFD0
:1007EC0001000100010034216400436F756E7465D3
:1007FC007220636C6F636B2D77697365206469720B
:10080C00656374696F6E20696E697469617465647F
:10081C00200A00436C6F636B2D77697365206469E4
:10082C0072656374696F6E20696E69746961746551
:10083C0064200A00536572766F20686173206265CC
:10084C00656E2073746F70706564200A004C656669
:10085C0074202D3E2069737375696E6720436F7524
:10086C006E74657220636C6F636B2D776973652092
:10087C006D6F76656D656E74200A2C205269676801
:10088C0074202D3E2069737375696E6720636C6FDD
:10089C00636B2D77697365206D6F76656D656E740E
:1008AC00200A2C2053746F70202D3E2069737375B1
:1008BC00696E672073746F7020636F6D6D616E6409
:1008CC00200A2C2048656C70202D3E2048656C70E9
:1008DC00206D656E75200A00536572766F20697302
:1008EC0020616C7265616479206D6F76696E67202A
:1008FC00696E207468617420646972656374696FD1
:10090C006E210A00536572766F2069736E2774200E
:10091C006D6F76696E670A00436F6D6D616E643A38
:10092C0048656C7000436F6D6D616E643A53746F03
:10093C007000436F6D6D616E643A52696768740044
:10094C00436F6D6D616E643A4C65667400436F6EF7
:10095C0074726F6C6C657220726561647920666F5D
:10096C007220696E737472756374696F6E732E2E58
:10097C002E20200A004C65667420202D3E206973C1
:10098C007375696E6720636F756E74657220636C26
:10099C006F636B2D77697365206D6F76656D656E12
:1009AC00742C0A5269676874202D3E206973737524
:1009BC00696E6720636C6F636B2D77697365206D4F
:1009CC006F76656D656E742C0A53746F7020202DD4
:1009DC003E2069737375696E672073746F70206342
:1009EC006F6D6D616E642C200A48656C7020202D33
:1009FC003E2048656C70206D656E75200A0045526E
:100A0C00524F52003A0041542B43495053454E44E7
:040A1C003D342C0039
:00000001FF
