:1000000012C02CC02BC02AC029C028C027C026C0BF
:1000100025C024C023C023C021C020C01FC01EC0D3
:100020001DC01CC01BC011241FBECFE5D4E0DEBF25
:10003000CDBF10E0A0E6B0E0EEE3F2E002C0059034
:100040000D92AC36B107D9F720E0ACE6B0E001C0C4
:100050001D92AF36B207E1F739D0EFC0D1CF1F9272
:100060000F920FB60F9211242F938F939F9380912D
:100070006000813039F48CB180936C0082E0809311
:1000800060000FC02CB180916C0090E0982F882701
:10009000820F911D90936E0080936D0081E080939C
:1000A000600098B381E0892788BB9F918F912F9141
:1000B0000F900FBE0F901F901895C2988FB9779B25
:1000C000FECF6FB9779BFECFC29A0895CF93DF938F
:1000D000CDB7DEB76E970FB6F894DEBF0FBECDBFBB
:1000E0008AE0E1E6F0E0DE01559601900D928A95F6
:1000F000E1F787B38C6287BBC29A81B38C6081BB06
:1001000093988DB18F658DB9599A8CE089B98AB170
:1001100088698AB980B5866880BD2FE38DE093E059
:10012000215080409040E1F700C0000061E08CE089
:10013000C4DF60E08FE0C1DF65E08AE0BEDF67E03A
:100140008BE0BBDF6FEF89E0B8DFB89A11E06FE0BA
:10015000812FB3DF1F5F1930D1F7789400E010E0F2
:100160000F2EF7E0CF2EF02DD12CE12C06C06FE042
:1001700081E0800FA2DF0F5F1F4F08301105B8F339
:1001800080916D0090916E004AE0BE016F5F7F4FDD
:100190002BD0898181111AC010C0F80181918F0183
:1001A000882359F0E5EEFFEFEC0FFD1FE80FF11D7E
:1001B00060818F2D82DFFA9481F787EA91E60197BB
:1001C000F1F700C000000D2D1E2DD7CFE5EEFFEF9B
:1001D000EC0FFD1FE80FF11D608188E06EDF8E01DE
:1001E0000E5F1F4FFC2CD9CFBB27FB015527AA2739
:1001F000880F991FAA1FA41710F0A41B83955051B4
:10020000B9F7A05DAA3308F0A95DA193009779F72B
:10021000B111B1931192CB0100C0DC01FC01672F39
:1002200071917723E1F7329704C07C916D937083CD
:0E0230006291AE17BF07C8F30895F894FFCF90
:0C023E00017E306D79335B5F707F7B00C8
:00000001FF
