S01A0000777973776965746C61637A5350495F365F322E7372656332
S1130000F3C102C201C200C2FFC1FEC1FDC1FCC1F5
S1130010FBC1FAC1F9C1F8C1F7C1F6C1F5C1F4C118
S1130020F3C1F2C1F1C1060000000600060006009B
S11300300C00060012000600180006001E00060050
S1130040240006002A0006003000060036000600E0
S11300503C00060042000600480006004E00060070
S1130060540006005A000600600006006600060000
S11300706C00060072000600780006007E00060090
S1130080840006008A000600900006009600060020
S11300909C000600A2000600A8000600AE000600B0
S11300A0B4000600BA000600C0000600C600060040
S11300B0CC000600D2000600D8000600DE000600D0
S11300C0E4000600EA000600F0000600F600060060
S11300D0FC00060002010600080106000E010600ED
S11300E0140106001A01060020010600260106007C
S11300F02C01060032010600380106003E0106000C
S1130100440106004A01060050010600560106009B
S11301105C01060062010600680106006E0106002B
S113012074010000000006007A0106008001060048
S1130130860106008C010600920106009801060063
S11301409E010600A4010600AA010600B0010600F3
S1130150B6010600BC010600C2010600C801060083
S1130160CE010600D4010600DA010600E001060013
S1130170E6010600EC010600F2010600F8010600A3
S1130180FE010600040206000A0206001002060030
S1130190160206001C0206002202060028020000C5
S11301A0005F000000000300030000147F147F14AC
S11301B000242A6B2A1200433008066100304A5D8D
S11301C03248000000030000001C224141000041AD
S11301D041221C000005020205000010107C1010D2
S11301E0000000E00000001010101010000000607B
S11301F00000004030080601003E5149453E0040E1
S1130200427F4040006251494946002241494936F3
S113021000181412117F002745454539003C4A490E
S1130220493000030171090700364949493600067F
S11302304949291E000000660000000000E6000095
S11302400008142241000024242424240041221400
S113025008000002015109063E415D5D515E007EC9
S11302600505057E007F4545453A003E4141412252
S1130270007F4141413E007F45454141007F0505E6
S11302800101003E4145453D007F0404047F000018
S1130290417F410000204040403F007F04040A7138
S11302A0007F40404040007F0204027F007F020440
S11302B0087F003E4141413E007F05050502003EA6
S11302C04141215E007F0505057A002245454539F7
S11302D00001017F0101003F4040403F000F3040DA
S11302E0300F007F2010207F00710A040A71000182
S11302F0027C020100615149454300007F414100F5
S1130300000106083040000041417F000004020162
S11303100204008080808080002054545478007F40
S11303204844443800384444442800384444487F0E
S113033000385454545800047E0505000098A4A4C1
S1130340A47C007F080404780000007D00000060A5
S11303508080807D007F1028440000003F40000022
S1130360007C04180478007C0404047800384444B5
S1130370443800FC282424180018242428FC007C79
S1130380080404080048545454240000023F420066
S1130390003C4040407C001C2040201C003C40703D
S11303A0407C004428102844009CA0A0A07C004469
S11303B064544C44000836414100000000FF000032
S11303C00041413608000201010202016F6B6C61B9
S11303D063686F6D6100526F7A6D6961722070613C
S11303E06D696563693A200011241FBECFE5D4E02E
S11303F0DEBFCDBF22E0A0E6B0E001C01D92A5366D
S1130400B207E1F7AAD119C2FBCD0F931F93CF9383
S1130410DF93EC0121978C01015E1F4FCE016AD05E
S113042083EE90E046D12496C017D107B9F7DF9147
S1130430CF911F910F9108958C9A949A089594984E
S11304408EE08FB9779BFECF1FB8779BFECF8FB11D
S1130450949A813089F028F0823041F0833049F059
S113046003C080E490E0089590E0089580E091E076
S1130470089580E092E0089580E890E008959498CB
S113048091E09FB9779BFECF8FB9779BFECF949A6B
S11304900895CF93DF93611528E0720738F5403251
S11304A0510520F5660F771F62957295707F762748
S11304B0607F7627640F751F949822E02FB9779B8D
S11304C0FECF1FB8779BFECF6FB9779BFECFEC01B1
S11304D078D1FE019E01280F391F04C095919FB960
S11304E0779BFECFE217F307C9F7949A80E0DF9178
S11304F0CF910895CF93DF93EC0181E4C0DFC11560
S113050088E0D80710F5CC0FDD1FC295D295D07FB7
S1130510DC27C07FDC27949883E08FB9779BFECFDC
S11305201FB8779BFECFCFB9779BFECFE3EEF0E009
S113053023E631E01FB8779BFECF8FB18193E2179A
S1130540F307C1F7949A81E001C080E0DF91CF9175
S1130550089580916000909161009C012F5F3F4F4E
S11305603093610020936000880F991F82959295C3
S1130570907F9827807F982708958F9AB89AC09A79
S1130580BA9AC29A87B3886287BB6C9A8DB18C6021
S11305908DB9709A689A6E9A08959798C2988DE862
S11305A08FB9779BFECF84E18FB9779BFECFC29A38
S11305B008959798C2988FEA8FB9779BFECFC29A15
S11305C00895EBDFF6DF08959798C29892E29FB9F9
S11305D0779BFECF8FB9779BFECF6FB9779BFECF0A
S11305E0C29A08959798C29891E29FB9779BFECFDB
S11305F08FB9779BFECF6FB9779BFECFC29A0895D0
S11306009798C29890E29FB9779BFECF8FB9779B5A
S1130610FECFC29A089580E0F3DF67E080E0D4DF84
S11306206FE780E0DFDF979AC29880E094E01FB81C
S1130630779BFECF0197D9F7C29A0895979AC298EB
S1130640282F30E021523109F901EE0FFF1FEE0F80
S1130650FF1FEA5DFF4F459155912F3F9FEF3907EB
S113066034F1803221F04115510549F420C085E070
S113067090E01FB8779BFECF0197D9F718C080E0B0
S113068090E0F901EE0FFF1FEE0FFF1FE85DFF4F33
S113069065917591FC01E256FE4FE60FF71F249118
S11306A02FB9779BFECF01968417950799F7C29AC5
S11306B00895EF92FF920F931F93CF93DF938C01D2
S11306C07C01C0E0D0E005C0F70181917F01B6DF75
S11306D02196F80101900020E9F73197E01BF10B16
S11306E0CE17DF0788F3DF91CF911F910F91FF9011
S11306F0EF9008950F931F93CF93DF938C0161D0F4
S1130700E801080F191F04C0FE012196859196DFA8
S1130710C017D107C9F7DF91CF911F910F910895A9
S1130720CF93DF93CDB7DEB72B970FB6F894DEBF28
S11307300FBECDBFDC01CB014AE0BE016F5F7F4F2E
S113074049D0CE010196B5DF2B960FB6F894DEBFE3
S11307500FBECDBFDF91CF9108950FDF6DDE31DF86
S11307602FEF8FEF9CE2215080409040E1F700C0D2
S1130770000051DF61DE2FEF8FE796E121508040CA
S11307809040E1F700C0000046DF86ED93E0B2DF61
S113079056DEBC01990F880B990BC2DF81E06FDE36
S11307A0D8DE9093E6018093E50135DF40E050E028
S11307B061E070E08CEC93E06CDE81E090E025DE9B
S11307C0FFCFFC0105900020E9F7809590958E0FEE
S11307D09F1F0895BB274A3031F4992322F4BDE2C8
S11307E0909581959F4F01C0BB27FB015527AA27F0
S11307F0880F991FAA1FA41710F0A41B83955051AA
S1130800B9F7A05DAA3308F0A95DA193009779F721
S1130810B111B1931192CB0100C0DC01FC01672F2F
S113082071917723E1F7329704C07C916D937083C3
S11108306291AE17BF07C8F30895F894FFCF86
S9030000FC
