S01000004A6F79537469636B2E73726563E4
S113000012C021C020C01FC038C01DC01CC01BC0EE
S113001025C01AC018C017C016C015C014C013C01C
S113002012C011C010C011241FBECFE5D4E0DEBF42
S1130030CDBF20E0A0E6B0E001C01D92A437B20716
S1130040E1F725D0ACC0DCCF1F920F920FB60F9210
S113005011240F900FBE0F901F9018951F920F92AE
S11300600FB60F9211248F9388B3805888BB8F9159
S11300700F900FBE0F901F9018951F920F920FB6FE
S11300800F9211240F900FBE0F901F901895B89ADD
S113009083B7826083BF89B7816089BF87B3866075
S11300A087BB8FB580688FBD8CE192E09BBD8ABD14
S11300B02FB520622FBD99BD88BD8FB582608FBDDD
S11300C08EB588618EBD8FE19EE497BD86BD8EB5E9
S11300D081608EBD3E9A86B1876086B9379A599AF7
S11300E08CE089B98AB188618AB980B5866880BD97
S11300F0899AC0E2389A3998369A3699FECF84B1F3
S113010095B18AB59BB54AE060E670E081EE90E077
S113011013D0E0E6F0E090E0E437F90759F3819179
S1130120811102C0CCB9E6CF8CB983EC99E0019778
S1130130F1F700C00000EFCFBB274A3031F4992318
S113014022F4BDE2909581959F4F01C0BB27FB012E
S11301505527AA27880F991FAA1FA41710F0A41BBC
S113016083955051B9F7A05DAA3308F0A95DA19316
S1130170009779F7B111B1931192CB0100C0DC0162
S1130180FC01672F71917723E1F7329704C07C91CA
S11301906D9370836291AE17BF07C8F30895F89406
S10501A0FFCF8B
S9030000FC
