S0190000706172736F77616E69655F74656B7374752E73726563D3
S1130000A2C0B1C0B0C0AFC0AEC0ADC0ACC0ABC088
S1130010AAC0A9C0A8C0A8C0A6C0A5C0A4C0A3C0A7
S1130020A2C0A1C0A0C020485454502F312E310D7D
S11300300A486F73743A2063656C696E7A312E6571
S11300406C656B74726F64612E65750D0A0D0A0020
S1130050474554202F4D414C2F646F64616A5F778C
S1130060796E696B2E7068703F77796E696B3D00AD
S113007041542B43495053454E443D0041542B4376
S1130080495053544152543D22544350222C22632C
S1130090656C696E7A312E656C656B74726F646120
S11300A02E6575222C38300D0A0041542B43574DD0
S11300B04F44455F4355523D330D0A002B4950448C
S11300C02C34383A0041542B43574A41505F43552E
S11300D0523D22427562615F776966695F47222CEF
S11300E0226C49554630396538664F6A664546483C
S11300F03233303938667953483233756679220D94
S11301000A0041542B434950434C4F53450D0A00B8
S113011041542B43495053454E443D34380D0A0055
S113012041542B43495053544152543D2255445059
S1130130222C226E7470312E74702E706C222C312D
S113014032330D0A000011241FBECFE5D4E0DEBF18
S1130150CDBF20E0A0E6B0E001C01D92AA3EB207E8
S1130160E1F76AD236C34CCF1F920F920FB60F92AB
S113017011248F939F93EF93FF93E0916000F0918C
S113018061008CB1EA57FF4F8083809160009091A9
S113019061008336910548F480916000909161007C
S11301A001969093610080936000FF91EF919F917D
S11301B08F910F900FBE0F901F90189561157105C8
S11301C099F0E3E3F7E03197F1F7F89420916000B8
S11301D0309161002817390718F46150710902C081
S11301E060E070E07894EACF0895F894609160003C
S11301F0709161007894E3E3F7E03197F1F72F5FB2
S11302003F4FF89440916000509161006417750766
S113021019F02817390754F378948FEF97E401976E
S1130220F1F700C000000895AC9A2FEF8FE191E040
S1130230215080409040E1F700C00000AB982FEFC0
S11302408FE392E0215080409040E1F700C000002D
S1130250AB9A0895109261001092600085EC90E0D2
S113026035D2E5ECF0E08B539F4FE817F90729F0FE
S11302705D9BFECF25912CB9F8CF2FEF8FEF90EE39
S1130280215080409040E1F700C0000008950F9392
S11302901F93109261001092600080E291E016D2E8
S11302A0E0E2F1E0805E9E4FE817F90729F05D9BDC
S11302B0FECF25912CB9F8CF88EE93E096DF10920B
S11302C061001092600080E191E000D2E0E1F1E091
S11302D0805F9E4FE817F90729F05D9BFECF2591BB
S11302E02CB9F8CF88EE93E080DF10926100109271
S11302F060005D9BFECF8BE18CB91092610010927F
S113030060008FE290E05D9BFECF1CB801970097E0
S1130310D1F760ED77E086E590E050DF8CEB90E07C
S1130320D5D160916000709161009C014CEB50E06C
S113033086E890E0D4D1FC018081882389F1F89487
S113034043A950E060E070E040585E476A4A734851
S113035000A910E020E030E0322F212F102F0027D9
S113036081A9080F111D211D311D322F212F102F9E
S1130370002782A9080F111D211D311D322F212FA5
S1130380102F0027400F511F621F731F40936200FC
S113039050936300609364007093650078940CC07C
S11303A080E090E0A0E0B1E080936200909363006D
S11303B0A0936400B09365001092610010926000F5
S11303C083E090E02BE25D9BFECF2CB90197009770
S11303D0D1F72FEF3FEB41E2215030404040E1F7AD
S11303E000C00000E2E0F1E081E0EF30F80729F01E
S11303F05D9BFECF85918CB9F7CF88EE93E0F5DE57
S113040085E090E0AD9A2FEF3FE141E0215030408C
S11304104040E1F700C00000AD982FEF3FE141E01C
S1130420215030404040E1F700C0000001970097A0
S113043049F788EE93E01F910F91D7CECF92DF92C8
S1130440EF92FF920F931F93CF93DF936B017C0185
S113045010926100109260008AEA90E037D1EAEAD3
S1130460F0E086559F4FE817F90729F05D9BFECF12
S113047025912CB9F8CF88EB9BE0B7DE1092610090
S1130480109260008CE790E021D1ECE7F0E0845812
S11304909F4FE817F90729F05D9BFECF25912CB9F2
S11304A0F8CF2FEF8FE796E1215080409040E1F79D
S11304B000C000002AE046E750E0C701B6013FD182
S11304C080E590E003D17C01C6E7D0E009900020EC
S11304D0E9F72197C657D040C80FD91F86E290E0AC
S11304E0F5D08C014AE066E670E0CE01800F911FE2
S11304F01CD184EF91E079DE1092610010926000CB
S113050080E790E0E3D0E0E7F0E080599F4FE81700
S1130510F90729F05D9BFECF25912CB9F8CFA6E60B
S1130520B0E0ED01FE0101900020E9F73197E656B5
S1130530F040CD01865690408E179F0728F45D9BAE
S1130540FECF8D918CB9EECF5D9BFECF8DE08CB943
S11305505D9BFECF8AE08CB988EE93E046DE109274
S1130560610010926000E0E5F0E0C701805B9F4FFE
S1130570E817F90729F05D9BFECF25912CB9F8CF38
S1130580A6E7B0E0ED01FE0101900020E9F7319704
S1130590E657F040CD01865790408E179F0728F408
S11305A05D9BFECF8D918CB9EECFE6E2F0E00A5D63
S11305B01F4FE017F10729F05D9BFECF85918CB9A1
S11305C0F8CF2FEF8FE39BE0215080409040E1F77C
S11305D000C00000109261001092600083E090E07F
S11305E02BE25D9BFECF2CB901970097D1F72FEF3B
S11305F08FEB91E2215080409040E1F700C0000071
S1130600109261001092600082E091E05FD0E2E01D
S1130610F1E08E5F9E4FE817F90729F05D9BFECF4E
S113062025912CB9F8CFDF91CF911F910F91FF90B5
S1130630EF90DF90CF90089584B3886284BB3BD061
S1130640F3DD2FEF3FEF4CE2215030404040E1F723
S113065000C000007894FEDD1ADE8FEF9FE726E1EC
S1130660815090402040E1F700C0000084E190E018
S1130670AD9A3FEF4FE121E0315040402040E1F797
S113068000C00000AD983FEF4FE121E03150404001
S11306902040E1F700C000000197009749F76091FE
S11306A06200709163008091640090916500C6DEE1
S11306B080E090E0089587E089B9599A8AB1886901
S11306C08AB980B5866880BD899A0895FC01059031
S11306D00020E9F7809590958E0F9F1F08952115AE
S11306E0310511F11F930F93240F351F680F791FE4
S11306F0FA011591AF01DC01A617B70780F40D913B
S11307000117D1F7CD01FA01E217F30750F4A61748
S1130710B70728F40D9105900015B1F3ECCF81E0F3
S113072090E001970F911F910895BB274A3031F44F
S1130730992322F4BDE2909581959F4F22C0BB2757
S1130740FA01A62F6217710581059105330B30FB61
S113075066F0AA27660F771F881F991FAA1FA21782
S113076010F0A21B63953850A9F7A05DAA3308F0D6
S1130770A95DA19336F7B111B1931082CA0119C0D2
S1130780BB27FB015527AA27880F991FAA1FA41767
S113079010F0A41B83955051B9F7A05DAA3308F05B
S11307A0A95DA193009779F7B111B1931192CB018F
S11307B000C0DC01FC01672F71917723E1F73297C8
S11307C004C07C916D9370836291AE17BF07C8F328
S10907D00895F894FFCF28
S9030000FC
