S010000064616C6D6965727A2E73726563BC
S113000012C021C020C01FC01FC01DC01CC01BC007
S11300101AC019C018C017C016C015C014C013C028
S113002012C011C010C011241FBECFE5D4E0DEBF42
S1130030CDBF20E0A0E6B0E001C01D92AC36B2070F
S1130040E1F727D0B2C0DCCF1F920F920FB60F9208
S113005011248F939F93AF93BF93809168009091E5
S11300606900A0916A00B0916B000196A11DB11DB9
S11300708093680090936900A0936A00B0936B002A
S1130080BF91AF919F918F910F900FBE0F901F90D2
S11300901895599A8CE089B980B5866880BD8AB173
S11300A088618AB9899AA49AA39A89B7816089BF19
S11300B089B7806489BF78941092680010926900AF
S11300C010926A0010926B0014BCA29AA298AB9A88
S11300D022E02A95F1F700C0AB989A9BFECF85B534
S11300E0816085BD9A99FECF85B58E7F85BD80914F
S11300F0680090916900A0916A00B0916B0024B5EA
S1130100BA2FA92F982F8827820F911DA11DB11DE9
S1130110B695A7959795879580936400909365000D
S1130120A0936600B0936700809360009093610091
S1130130A0936200B09363005D9BFECF8CB95D9B7E
S1130140FECF8091600090916100A0916200B09117
S11301506300892F9A2FAB2FBB278CB95D9BFECFF1
S11301608091600090916100A0916200B091630061
S1130170CD01AA27BB278CB95D9BFECF809160007F
S113018090916100A0916200B09163008B2F992738
S1130190AA27BB278CB98FE39DE023E081509040D0
S11101A02040E1F700C0000087CFF894FFCFA5
S9030000FC
