:1000000012C019C018C017C016C015C014C013C044
:1000100012C011C010C00FC00EC00DC00CC00BC06C
:100020000AC009C008C011241FBECFE5D4E0DEBF5E
:10003000CDBF02D066C0E4CF87B38E6087BB88B3E4
:100040008E6088BB8A9A599A8CE089B98AB1886196
:100050008AB980B5866880BD899A8FB581608FBD69
:100060008EB588608EBD8FB5806C8FBD8FB5806377
:100070008FBD8EB582608EBD87B3866087BB85B528
:10008000886485BD85B5826085BD85B5806385BD85
:10009000BB9AC39A34E05F9BFECF8CB15F9BFECFCF
:1000A0002CB1813071F4822F90E09BBD8ABD21116B
:1000B00004C08FB58F738FBD20C08FB5806C8FBD8E
:1000C0001CC0823059F423BD211104C085B58F7C3A
:1000D00085BD13C085B5806385BD0FC0833069F4CD
:1000E000822F90E099BD88BD211104C08FB58F7C0F
:1000F0008FBD03C08FB580638FBD82B3832782BB62
:06010000CACFF894FFCF06
:00000001FF
