S02700005350495F327841544D4547415F576946695F426C7565746F6F74685F365F322E7372656350
S11300007BC095C094C093C092C091C090C08FC073
S11300108EC08DC08CC097C08AC089C088C087C07C
S113002086C085C084C020485454502F312E310DD1
S11300300A486F73743A2063656C696E7A312D7562
S11300407A7974312E6362612E706C0D0A0D0A0088
S1130050474554202F646F64616A5F77796E696BDA
S11300602E7068703F77796E696B3D0041542B4365
S1130070495053454E443D0041542B434950535439
S11300804152543D22544350222C2263656C696EC4
S11300907A312D757A7974312E6362612E706C22F7
S11300A02C38300D0A0041542B43574D4F44455FC3
S11300B04355523D330D0A0041542B43574A415096
S11300C05F4355523D22427562615F776966695F9D
S11300D047222C2241534844474B4A4748220D0AA1
S11300E00041542B434950434C4F53450D0A0041A2
S11300F0542B5253540D0A0011241FBECFE5D4E0F3
S1130100DEBFCDBF10E0A0E6B0E0EAE1F5E002C05A
S113011005900D92A036B107D9F720E0A0E6B0E033
S113012001C01D92AC3DB207E1F797D1F4C168CF8D
S113013087E089B9599A8AB188698AB980B586688D
S113014080BD899A08951F920F920FB60F921124C1
S11301508F939F93EF93FF93E0916000F091610080
S11301608CB1EE59FF4F80838091600090916100C3
S11301708336910548F48091600090916100019666
S11301809093610080936000FF91EF919F918F9114
S11301900F900FBE0F901F90189587B38C6087BB8C
S11301A0BC98BD9A8DB183618DB96E9A08951092F1
S11301B061001092600088EB90E071D1E8EBF0E010
S11301C09C0128543F4F04C05D9BFECF95919CB980
S11301D0E217F307C9F72FEF8FEF90EE215080401D
S11301E09040E1F700C000000895F89420E030E06A
S11301F060916000709161007894E3E3F7E03197D7
S1130200F1F72F5F3F4FF8944091600050916100E7
S11302106417750719F02817390754F378948FEF8A
S113022097E40197F1F700C000000895DC011092F3
S113023061001092600020E030E008C05D9BFECFBA
S1130240FC01019645914CB92F5F3F4FFD01019090
S11302500020E9F73197EA1BFB0B2E173F0770F3D9
S113026088EE93E0C2DF0895CF92DF92EF92FF927F
S11302700F931F93CF93DF93EC01109261001092C0
S1130280600086EA90E00BD1E6EAF0E09C012A5592
S11302903F4F04C05D9BFECF95919CB9E217F307D5
S11302A0C9F788EB9BE0A1DF109261001092600017
S11302B088E790E0F4D0E8E7F0E09C0128583F4F4D
S11302C004C05D9BFECF95919CB9E217F307C9F773
S11302D02FEF8FE796E1215080409040E1F700C076
S11302E0000080E590E0DBD08C01FE01019000204D
S11302F0E9F73197EC1BFD0B6F01C80ED91E86E29E
S113030090E0CDD07C014AE066EC70E0C6018E0D31
S11303109F1DCED084EF91E068DF109261001092AF
S113032060008CE690E0BBD0ECE6F0E09C01245940
S11303303F4F04C05D9BFECF95919CB9E217F30734
S1130340C9F7A6ECB0E080E090E0AD0105C05D9B8C
S1130350FECF2D912CB90196FA0101900020E9F706
S11303603197E65CF0408E179F0788F35D9BFECFC4
S11303708DE08CB95D9BFECF8AE08CB988EE93E06A
S113038034DF1092610010926000E0E5F0E0980123
S1130390205B3F4F04C05D9BFECF85918CB9E21773
S11303A0F307C9F7DE0180E090E005C05D9BFECF56
S11303B02D912CB90196FE0101900020E9F73197A7
S11303C0EC1BFD0B8E179F0788F3E6E2F0E0E701D4
S11303D0CA5DDF4F04C05D9BFECF85918CB9EC17DD
S11303E0FD07C9F72FEF8FE39BE021508040904039
S11303F0E1F700C00000109261001092600083E0F9
S113040090E02BE25D9BFECF2CB90197D9F72FEF3B
S11304108FEB91E2215080409040E1F700C0000052
S1130420109261001092600081EE90E038D0E1EE0D
S1130430F0E09C012F513F4F04C05D9BFECF95918E
S11304409CB9E217F307C9F7DF91CF911F910F9180
S1130450FF90EF90DF90CF9008958F9AC29A9DDE1F
S113046067DE2FEF8FEF9CE2215080409040E1F750
S113047000C0000078948FEE90E0D8DE98DE4AE069
S113048066ED70E088E190E013D086ED90E0ECDE5C
S11304908FEF97E40197F1F700C00000F0CFFC0163
S11304A005900020E9F7809590958E0F9F1F089581
S11304B0BB274A3031F4992322F4BDE2909581950B
S11304C09F4F01C0BB27FB015527AA27880F991FFF
S11304D0AA1FA41710F0A41B83955051B9F7A05D6F
S11304E0AA3308F0A95DA193009779F7B111B193EC
S11304F01192CB0100C0DC01FC01672F71917723BD
S1130500E1F7329704C07C916D9370836291AE17CA
S10D0510BF07C8F30895F894FFCF65
S9030000FC
