S02900005350495F536C6176655F327841544D4547415F576946695F426C7565746F6F74682E737265631A
S113000012C021C020C01FC01EC01DC01CC01BC008
S11300101AC019C018C018C016C015C014C013C027
S113002012C011C010C011241FBECFE5D4E0DEBF42
S1130030CDBF20E0A0E6B0E001C01D92A036B2071B
S1130040E1F723D028C0DCCF1F920F920FB60F9296
S113005011248F938CB18FB98F910F900FBE0F9095
S11300601F90189587B3837F87BBBC9ABD986C9803
S11300706E9A0895599A8CE089B980B5866880BDD6
S11300808AB188698AB9899A0895A49AEBDFF2DF64
S10D009078948EB1FECFF894FFCFF0
S9030000FC
